{
  "contractName": "CertificateLedger",
  "abi": [
    {
      "inputs": [],
      "payable": false,
      "stateMutability": "nonpayable",
      "type": "constructor"
    },
    {
      "constant": true,
      "inputs": [
        {
          "internalType": "uint256",
          "name": "",
          "type": "uint256"
        }
      ],
      "name": "certificates",
      "outputs": [
        {
          "internalType": "string",
          "name": "recipientID",
          "type": "string"
        },
        {
          "internalType": "string",
          "name": "donorID",
          "type": "string"
        },
        {
          "components": [
            {
              "internalType": "uint256",
              "name": "age",
              "type": "uint256"
            },
            {
              "internalType": "uint256",
              "name": "PRA",
              "type": "uint256"
            },
            {
              "internalType": "string",
              "name": "bloodType",
              "type": "string"
            },
            {
              "internalType": "string",
              "name": "HLAA1",
              "type": "string"
            },
            {
              "internalType": "string",
              "name": "HLAA2",
              "type": "string"
            },
            {
              "internalType": "string",
              "name": "HLAB1",
              "type": "string"
            },
            {
              "internalType": "string",
              "name": "HLAB2",
              "type": "string"
            },
            {
              "internalType": "string",
              "name": "HLADR1",
              "type": "string"
            },
            {
              "internalType": "string",
              "name": "HLADR2",
              "type": "string"
            },
            {
              "internalType": "string",
              "name": "HLADQ1",
              "type": "string"
            },
            {
              "internalType": "string",
              "name": "HLADQ2",
              "type": "string"
            }
          ],
          "internalType": "struct CertificateLedger.Health",
          "name": "recipientHealth",
          "type": "tuple"
        },
        {
          "components": [
            {
              "internalType": "uint256",
              "name": "age",
              "type": "uint256"
            },
            {
              "internalType": "uint256",
              "name": "PRA",
              "type": "uint256"
            },
            {
              "internalType": "string",
              "name": "bloodType",
              "type": "string"
            },
            {
              "internalType": "string",
              "name": "HLAA1",
              "type": "string"
            },
            {
              "internalType": "string",
              "name": "HLAA2",
              "type": "string"
            },
            {
              "internalType": "string",
              "name": "HLAB1",
              "type": "string"
            },
            {
              "internalType": "string",
              "name": "HLAB2",
              "type": "string"
            },
            {
              "internalType": "string",
              "name": "HLADR1",
              "type": "string"
            },
            {
              "internalType": "string",
              "name": "HLADR2",
              "type": "string"
            },
            {
              "internalType": "string",
              "name": "HLADQ1",
              "type": "string"
            },
            {
              "internalType": "string",
              "name": "HLADQ2",
              "type": "string"
            }
          ],
          "internalType": "struct CertificateLedger.Health",
          "name": "donorHealth",
          "type": "tuple"
        },
        {
          "internalType": "address",
          "name": "signature",
          "type": "address"
        }
      ],
      "payable": false,
      "stateMutability": "view",
      "type": "function"
    },
    {
      "constant": true,
      "inputs": [
        {
          "internalType": "uint256",
          "name": "id",
          "type": "uint256"
        }
      ],
      "name": "getAddress",
      "outputs": [
        {
          "internalType": "uint256",
          "name": "",
          "type": "uint256"
        }
      ],
      "payable": false,
      "stateMutability": "view",
      "type": "function"
    },
    {
      "constant": true,
      "inputs": [
        {
          "internalType": "uint256",
          "name": "id",
          "type": "uint256"
        }
      ],
      "name": "getRecipientHealth",
      "outputs": [
        {
          "internalType": "uint256",
          "name": "",
          "type": "uint256"
        }
      ],
      "payable": false,
      "stateMutability": "view",
      "type": "function"
    },
    {
      "constant": false,
      "inputs": [
        {
          "internalType": "string",
          "name": "_recipientID",
          "type": "string"
        },
        {
          "internalType": "string",
          "name": "_donorID",
          "type": "string"
        },
        {
          "components": [
            {
              "internalType": "uint256",
              "name": "age",
              "type": "uint256"
            },
            {
              "internalType": "uint256",
              "name": "PRA",
              "type": "uint256"
            },
            {
              "internalType": "string",
              "name": "bloodType",
              "type": "string"
            },
            {
              "internalType": "string",
              "name": "HLAA1",
              "type": "string"
            },
            {
              "internalType": "string",
              "name": "HLAA2",
              "type": "string"
            },
            {
              "internalType": "string",
              "name": "HLAB1",
              "type": "string"
            },
            {
              "internalType": "string",
              "name": "HLAB2",
              "type": "string"
            },
            {
              "internalType": "string",
              "name": "HLADR1",
              "type": "string"
            },
            {
              "internalType": "string",
              "name": "HLADR2",
              "type": "string"
            },
            {
              "internalType": "string",
              "name": "HLADQ1",
              "type": "string"
            },
            {
              "internalType": "string",
              "name": "HLADQ2",
              "type": "string"
            }
          ],
          "internalType": "struct CertificateLedger.Health",
          "name": "_recipientHealth",
          "type": "tuple"
        },
        {
          "components": [
            {
              "internalType": "uint256",
              "name": "age",
              "type": "uint256"
            },
            {
              "internalType": "uint256",
              "name": "PRA",
              "type": "uint256"
            },
            {
              "internalType": "string",
              "name": "bloodType",
              "type": "string"
            },
            {
              "internalType": "string",
              "name": "HLAA1",
              "type": "string"
            },
            {
              "internalType": "string",
              "name": "HLAA2",
              "type": "string"
            },
            {
              "internalType": "string",
              "name": "HLAB1",
              "type": "string"
            },
            {
              "internalType": "string",
              "name": "HLAB2",
              "type": "string"
            },
            {
              "internalType": "string",
              "name": "HLADR1",
              "type": "string"
            },
            {
              "internalType": "string",
              "name": "HLADR2",
              "type": "string"
            },
            {
              "internalType": "string",
              "name": "HLADQ1",
              "type": "string"
            },
            {
              "internalType": "string",
              "name": "HLADQ2",
              "type": "string"
            }
          ],
          "internalType": "struct CertificateLedger.Health",
          "name": "_donorHealth",
          "type": "tuple"
        },
        {
          "internalType": "address",
          "name": "_signature",
          "type": "address"
        }
      ],
      "name": "createCert",
      "outputs": [],
      "payable": false,
      "stateMutability": "nonpayable",
      "type": "function"
    },
    {
      "constant": true,
      "inputs": [],
      "name": "getAll",
      "outputs": [
        {
          "internalType": "uint256",
          "name": "",
          "type": "uint256"
        }
      ],
      "payable": false,
      "stateMutability": "view",
      "type": "function"
    },
    {
      "constant": true,
      "inputs": [
        {
          "internalType": "address",
          "name": "signature",
          "type": "address"
        }
      ],
      "name": "findMatch",
      "outputs": [
        {
          "internalType": "string",
          "name": "",
          "type": "string"
        }
      ],
      "payable": false,
      "stateMutability": "view",
      "type": "function"
    }
  ],
  "bytecode": "0x60806040526000805534801561001457600080fd5b5061201b806100246000396000f3fe608060405234801561001057600080fd5b50600436106100625760003560e01c806341d2949b1461006757806353ed51431461007c578063663b3e221461009a5780637eeaebb0146100be578063a03e4a42146100de578063b93f9b0a146100f1575b600080fd5b61007a610075366004611b67565b610104565b005b6100846103db565b6040516100919190611eed565b60405180910390f35b6100ad6100a8366004611c37565b6103e2565b604051610091959493929190611e87565b6100d16100cc366004611b41565b610fe9565b6040516100919190611e76565b6100846100ec366004611c37565b61184c565b6100846100ff366004611c37565b611861565b6040805160a0810182528681526020808201879052818301869052606082018590526001600160a01b0384166080830152600080548152600182529290922081518051929391926101589284920190611867565b5060208281015180516101719260018501920190611867565b506040828101518051600284019081556020808301516003860155928201518051929391926101a69260048701920190611867565b50606082015180516101c2916003840191602090910190611867565b50608082015180516101de916004840191602090910190611867565b5060a082015180516101fa916005840191602090910190611867565b5060c08201518051610216916006840191602090910190611867565b5060e08201518051610232916007840191602090910190611867565b50610100820151805161024f916008840191602090910190611867565b50610120820151805161026c916009840191602090910190611867565b50610140820151805161028991600a840191602090910190611867565b50505060608201518051600d8301908155602080830151600e850155604083015180516102bc92600f8701920190611867565b50606082015180516102d8916003840191602090910190611867565b50608082015180516102f4916004840191602090910190611867565b5060a08201518051610310916005840191602090910190611867565b5060c0820151805161032c916006840191602090910190611867565b5060e08201518051610348916007840191602090910190611867565b506101008201518051610365916008840191602090910190611867565b506101208201518051610382916009840191602090910190611867565b50610140820151805161039f91600a840191602090910190611867565b50505060809190910151601890910180546001600160a01b0319166001600160a01b039092169190911790555050600080546001019055505050565b6000545b90565b60016020818152600092835260409283902080548451600294821615610100026000190190911693909304601f81018390048302840183019094528383529283918301828280156104745780601f1061044957610100808354040283529160200191610474565b820191906000526020600020905b81548152906001019060200180831161045757829003601f168201915b505050505090806001018054600181600116156101000203166002900480601f0160208091040260200160405190810160405280929190818152602001828054600181600116156101000203166002900480156105125780601f106104e757610100808354040283529160200191610512565b820191906000526020600020905b8154815290600101906020018083116104f557829003601f168201915b50505050509080600201604051806101600160405290816000820154815260200160018201548152602001600282018054600181600116156101000203166002900480601f0160208091040260200160405190810160405280929190818152602001828054600181600116156101000203166002900480156105d55780601f106105aa576101008083540402835291602001916105d5565b820191906000526020600020905b8154815290600101906020018083116105b857829003601f168201915b505050918352505060038201805460408051602060026001851615610100026000190190941693909304601f81018490048402820184019092528181529382019392918301828280156106695780601f1061063e57610100808354040283529160200191610669565b820191906000526020600020905b81548152906001019060200180831161064c57829003601f168201915b505050918352505060048201805460408051602060026001851615610100026000190190941693909304601f81018490048402820184019092528181529382019392918301828280156106fd5780601f106106d2576101008083540402835291602001916106fd565b820191906000526020600020905b8154815290600101906020018083116106e057829003601f168201915b505050918352505060058201805460408051602060026001851615610100026000190190941693909304601f81018490048402820184019092528181529382019392918301828280156107915780601f1061076657610100808354040283529160200191610791565b820191906000526020600020905b81548152906001019060200180831161077457829003601f168201915b505050918352505060068201805460408051602060026001851615610100026000190190941693909304601f81018490048402820184019092528181529382019392918301828280156108255780601f106107fa57610100808354040283529160200191610825565b820191906000526020600020905b81548152906001019060200180831161080857829003601f168201915b505050918352505060078201805460408051602060026001851615610100026000190190941693909304601f81018490048402820184019092528181529382019392918301828280156108b95780601f1061088e576101008083540402835291602001916108b9565b820191906000526020600020905b81548152906001019060200180831161089c57829003601f168201915b505050918352505060088201805460408051602060026001851615610100026000190190941693909304601f810184900484028201840190925281815293820193929183018282801561094d5780601f106109225761010080835404028352916020019161094d565b820191906000526020600020905b81548152906001019060200180831161093057829003601f168201915b505050918352505060098201805460408051602060026001851615610100026000190190941693909304601f81018490048402820184019092528181529382019392918301828280156109e15780601f106109b6576101008083540402835291602001916109e1565b820191906000526020600020905b8154815290600101906020018083116109c457829003601f168201915b5050509183525050600a8201805460408051602060026001851615610100026000190190941693909304601f8101849004840282018401909252818152938201939291830182828015610a755780601f10610a4a57610100808354040283529160200191610a75565b820191906000526020600020905b815481529060010190602001808311610a5857829003601f168201915b5050509190925250506040805161016081018252600d850180548252600e860154602080840191909152600f87018054855160026001831615610100026000190190921691909104601f8101849004840282018401875280825297989794965092948601939091830182828015610b2d5780601f10610b0257610100808354040283529160200191610b2d565b820191906000526020600020905b815481529060010190602001808311610b1057829003601f168201915b505050918352505060038201805460408051602060026001851615610100026000190190941693909304601f8101849004840282018401909252818152938201939291830182828015610bc15780601f10610b9657610100808354040283529160200191610bc1565b820191906000526020600020905b815481529060010190602001808311610ba457829003601f168201915b505050918352505060048201805460408051602060026001851615610100026000190190941693909304601f8101849004840282018401909252818152938201939291830182828015610c555780601f10610c2a57610100808354040283529160200191610c55565b820191906000526020600020905b815481529060010190602001808311610c3857829003601f168201915b505050918352505060058201805460408051602060026001851615610100026000190190941693909304601f8101849004840282018401909252818152938201939291830182828015610ce95780601f10610cbe57610100808354040283529160200191610ce9565b820191906000526020600020905b815481529060010190602001808311610ccc57829003601f168201915b505050918352505060068201805460408051602060026001851615610100026000190190941693909304601f8101849004840282018401909252818152938201939291830182828015610d7d5780601f10610d5257610100808354040283529160200191610d7d565b820191906000526020600020905b815481529060010190602001808311610d6057829003601f168201915b505050918352505060078201805460408051602060026001851615610100026000190190941693909304601f8101849004840282018401909252818152938201939291830182828015610e115780601f10610de657610100808354040283529160200191610e11565b820191906000526020600020905b815481529060010190602001808311610df457829003601f168201915b505050918352505060088201805460408051602060026001851615610100026000190190941693909304601f8101849004840282018401909252818152938201939291830182828015610ea55780601f10610e7a57610100808354040283529160200191610ea5565b820191906000526020600020905b815481529060010190602001808311610e8857829003601f168201915b505050918352505060098201805460408051602060026001851615610100026000190190941693909304601f8101849004840282018401909252818152938201939291830182828015610f395780601f10610f0e57610100808354040283529160200191610f39565b820191906000526020600020905b815481529060010190602001808311610f1c57829003601f168201915b5050509183525050600a8201805460408051602060026001851615610100026000190190941693909304601f8101849004840282018401909252818152938201939291830182828015610fcd5780601f10610fa257610100808354040283529160200191610fcd565b820191906000526020600020905b815481529060010190602001808311610fb057829003601f168201915b505050919092525050506018909101546001600160a01b031685565b60606000805b60005481101561102a576000818152600160205260409020601801546001600160a01b0385811691161415611022578091505b600101610fef565b5060005b6000548110156118445780821461183c57600081815260016020526040808220600d01548483529082206002015482918291829182918291829182918291829160149103101561107d57600197505b60008b81526001602052604090819020905161109c91600f0190611e4b565b6040805191829003822060008f815260016020529190912090916110c39160040190611e4b565b604051809103902014156110d657600199505b60008b8152600160205260409081902090516110f59160100190611e4b565b6040805191829003822060008f8152600160205291909120909161111c9160050190611e4b565b60405180910390201415611131576001909601955b60008b8152600160205260409081902090516111509160100190611e4b565b6040805191829003822060008f815260016020529190912090916111779160060190611e4b565b6040518091039020141561118c576001909601955b60008b8152600160205260409081902090516111ab9160120190611e4b565b6040805191829003822060008f815260016020529190912090916111d29160070190611e4b565b604051809103902014156111e7576001909601955b60008b8152600160205260409081902090516112069160130190611e4b565b6040805191829003822060008f8152600160205291909120909161122d9160080190611e4b565b60405180910390201415611242576001909601955b60008b8152600160205260409081902090516112619160140190611e4b565b6040805191829003822060008f815260016020529190912090916112889160090190611e4b565b6040518091039020141561129d576001909601955b60008b8152600160205260409081902090516112bc9160150190611e4b565b6040805191829003822060008f815260016020529190912090916112e391600a0190611e4b565b604051809103902014156112f8576001909601955b60008b8152600160205260409081902090516113179160160190611e4b565b6040805191829003822060008f8152600160205291909120909161133e91600b0190611e4b565b60405180910390201415611353576001909601955b60008b8152600160205260409081902090516113729160170190611e4b565b6040805191829003822060008f8152600160205291909120909161139991600c0190611e4b565b604051809103902014156113ae576001909601955b60008b815260016020526040808220600e01548e8352912060030154601491900310156113da57600198505b6004871180156113e75750875b80156113f05750895b80156113f95750885b1561140357600195505b60008b815260016020526040808220600201548e83529120600d01546014919003101561142f57600192505b60008b81526001602052604090819020905161144e9160040190611e4b565b6040805191829003822060008f8152600160205291909120909161147591600f0190611e4b565b6040518091039020141561148857600194505b60008b8152600160205260409081902090516114a79160050190611e4b565b6040805191829003822060008f815260016020529190912090916114ce9160100190611e4b565b604051809103902014156114e3576001909101905b60008b8152600160205260409081902090516115029160060190611e4b565b6040805191829003822060008f815260016020529190912090916115299160110190611e4b565b6040518091039020141561153e576001909101905b60008b81526001602052604090819020905161155d9160070190611e4b565b6040805191829003822060008f815260016020529190912090916115849160120190611e4b565b60405180910390201415611599576001909101905b60008b8152600160205260409081902090516115b89160080190611e4b565b6040805191829003822060008f815260016020529190912090916115df9160130190611e4b565b604051809103902014156115f4576001909101905b60008b8152600160205260409081902090516116139160090190611e4b565b6040805191829003822060008f8152600160205291909120909161163a9160140190611e4b565b6040518091039020141561164f576001909101905b60008b81526001602052604090819020905161166e91600a0190611e4b565b6040805191829003822060008f815260016020529190912090916116959160150190611e4b565b604051809103902014156116aa576001909101905b60008b8152600160205260409081902090516116c991600b0190611e4b565b6040805191829003822060008f815260016020529190912090916116f09160160190611e4b565b60405180910390201415611705576001909101905b60008b81526001602052604090819020905161172491600c0190611e4b565b6040805191829003822060008f8152600160205291909120909161174b9160170190611e4b565b60405180910390201415611760576001909101905b60008b815260016020526040808220600301548e83529120600e01546014919003101561178c57600193505b6004871180156117995750875b80156117a25750895b80156117ab5750885b156117b557600195505b6004821180156117c25750825b80156117cb5750845b80156117d45750835b156117dd575060015b8580156117e75750805b156118315760008b815260016020818152604092839020925161180f93928301929101611e5e565b6040516020818303038152906040529c50505050505050505050505050611847565b505050505050505050505b60010161102e565b50505b919050565b60009081526001602052604090206002015490565b50600a90565b828054600181600116156101000203166002900490600052602060002090601f016020900481019282601f106118a857805160ff19168380011785556118d5565b828001600101855582156118d5579182015b828111156118d55782518255916020019190600101906118ba565b506118e19291506118e5565b5090565b6103df91905b808211156118e157600081556001016118eb565b803561190a81611fb8565b92915050565b600082601f83011261192157600080fd5b813561193461192f82611f21565b611efb565b9150808252602083016020830185838301111561195057600080fd5b61195b838284611f72565b50505092915050565b6000610160828403121561197757600080fd5b611982610160611efb565b905060006119908484611b36565b82525060206119a184848301611b36565b60208301525060408201356001600160401b038111156119c057600080fd5b6119cc84828501611910565b60408301525060608201356001600160401b038111156119eb57600080fd5b6119f784828501611910565b60608301525060808201356001600160401b03811115611a1657600080fd5b611a2284828501611910565b60808301525060a08201356001600160401b03811115611a4157600080fd5b611a4d84828501611910565b60a08301525060c08201356001600160401b03811115611a6c57600080fd5b611a7884828501611910565b60c08301525060e08201356001600160401b03811115611a9757600080fd5b611aa384828501611910565b60e0830152506101008201356001600160401b03811115611ac357600080fd5b611acf84828501611910565b610100830152506101208201356001600160401b03811115611af057600080fd5b611afc84828501611910565b610120830152506101408201356001600160401b03811115611b1d57600080fd5b611b2984828501611910565b6101408301525092915050565b803561190a81611fcf565b600060208284031215611b5357600080fd5b6000611b5f84846118ff565b949350505050565b600080600080600060a08688031215611b7f57600080fd5b85356001600160401b03811115611b9557600080fd5b611ba188828901611910565b95505060208601356001600160401b03811115611bbd57600080fd5b611bc988828901611910565b94505060408601356001600160401b03811115611be557600080fd5b611bf188828901611964565b93505060608601356001600160401b03811115611c0d57600080fd5b611c1988828901611964565b9250506080611c2a888289016118ff565b9150509295509295909350565b600060208284031215611c4957600080fd5b6000611b5f8484611b36565b611c5e81611f61565b82525050565b600081546001811660008114611c815760018114611ca457611ce3565b607f6002830416611c928187611847565b60ff1984168152955085019250611ce3565b60028204611cb28187611847565b9550611cbd85611f48565b60005b82811015611cdc57815488820152600190910190602001611cc0565b5050850192505b505092915050565b6000611cf682611f54565b611d008185611f58565b9350611d10818560208601611f7e565b611d1981611fae565b9093019392505050565b8051600090610160840190611d388582611e42565b506020830151611d4b6020860182611e42565b5060408301518482036040860152611d638282611ceb565b91505060608301518482036060860152611d7d8282611ceb565b91505060808301518482036080860152611d978282611ceb565b91505060a083015184820360a0860152611db18282611ceb565b91505060c083015184820360c0860152611dcb8282611ceb565b91505060e083015184820360e0860152611de58282611ceb565b915050610100830151848203610100860152611e018282611ceb565b915050610120830151848203610120860152611e1d8282611ceb565b915050610140830151848203610140860152611e398282611ceb565b95945050505050565b611c5e816103df565b6000611e578284611c64565b9392505050565b6000611e6a8285611c64565b9150611b5f8284611c64565b60208082528101611e578184611ceb565b60a08082528101611e988188611ceb565b90508181036020830152611eac8187611ceb565b90508181036040830152611ec08186611d23565b90508181036060830152611ed48185611d23565b9050611ee36080830184611c55565b9695505050505050565b6020810161190a8284611e42565b6040518181016001600160401b0381118282101715611f1957600080fd5b604052919050565b60006001600160401b03821115611f3757600080fd5b506020601f91909101601f19160190565b60009081526020902090565b5190565b90815260200190565b60006001600160a01b03821661190a565b82818337506000910152565b60005b83811015611f99578181015183820152602001611f81565b83811115611fa8576000848401525b50505050565b601f01601f191690565b611fc181611f61565b8114611fcc57600080fd5b50565b611fc1816103df56fea365627a7a7231582083bac0f0583f7b412589cd6996a7171717ac825175406200ad21fa9ee2f0c3cf6c6578706572696d656e74616cf564736f6c63430005100040",
  "source": "pragma solidity ^0.5.16;\npragma experimental ABIEncoderV2;\n\ncontract CertificateLedger {\n    uint256 certCount = 0;\n    struct Certificate {\n        string recipientID;\n        // uint256 RecipientHealth;\n        string donorID;\n        Health recipientHealth;\n        Health donorHealth;\n        address signature;\n        // uint256 Contact;\n        // uint256 TimeStamp;\n        // bool ValidPair;\n    }\n\n    struct Health {\n        uint256 age;\n        uint256 PRA;\n        string bloodType;\n        string HLAA1;\n        string HLAA2;\n        string HLAB1;\n        string HLAB2;\n        string HLADR1;\n        string HLADR2;\n        string HLADQ1;\n        string HLADQ2;\n    }\n\n    mapping(uint256 => Certificate) public certificates;\n\n    constructor() public {}\n\n    function getAddress(uint256 id) public view returns (uint256) {\n        return (10);\n    }\n\n    function getRecipientHealth(uint256 id) public view returns (uint256) {\n        return (certificates[id].recipientHealth.age);\n    }\n\n    function createCert(\n        string memory _recipientID,\n        string memory _donorID,\n        Health memory _recipientHealth,\n        Health memory _donorHealth,\n        address _signature\n    ) public {\n        certificates[certCount] = Certificate(\n            _recipientID,\n            _donorID,\n            _recipientHealth,\n            _donorHealth,\n            _signature\n        );\n        certCount++;\n    }\n\n    function getAll() public view returns (uint256) {\n        return certCount;\n    }\n\n    function findMatch(address signature) public view returns (string memory) {\n        uint256 index = 0;\n        for (uint256 i = 0; i < certCount; i++) {\n            if (signature == certificates[i].signature) {\n                index = i;\n            }\n        }\n\n        for (uint256 i = 0; i < certCount; i++) {\n            if (index != i) {\n                bool bloodTypeMatch1;\n                bool PRAmatch1;\n                bool ageMatch1;\n                uint256 HLAmatches1;\n                bool recipientMatch;\n\n                bool bloodTypeMatch2;\n                bool PRAmatch2;\n                bool ageMatch2;\n                uint256 HLAmatches2;\n                bool donorMatch;\n\n                // Checks certificate recipient\n                if (\n                    certificates[index].recipientHealth.age -\n                        certificates[i].donorHealth.age <\n                    20\n                ) {\n                    ageMatch1 = true;\n                }\n\n                if (\n                    keccak256(\n                        bytes(certificates[index].recipientHealth.bloodType)\n                    ) == keccak256(bytes(certificates[i].donorHealth.bloodType))\n                ) {\n                    bloodTypeMatch1 = true;\n                }\n\n                if (\n                    keccak256(\n                        bytes(certificates[index].recipientHealth.HLAA1)\n                    ) == keccak256(bytes(certificates[i].donorHealth.HLAA1))\n                ) {\n                    HLAmatches1++;\n                }\n\n                if (\n                    keccak256(\n                        bytes(certificates[index].recipientHealth.HLAA2)\n                    ) == keccak256(bytes(certificates[i].donorHealth.HLAA1))\n                ) {\n                    HLAmatches1++;\n                }\n\n                if (\n                    keccak256(\n                        bytes(certificates[index].recipientHealth.HLAB1)\n                    ) == keccak256(bytes(certificates[i].donorHealth.HLAB1))\n                ) {\n                    HLAmatches1++;\n                }\n\n                if (\n                    keccak256(\n                        bytes(certificates[index].recipientHealth.HLAB2)\n                    ) == keccak256(bytes(certificates[i].donorHealth.HLAB2))\n                ) {\n                    HLAmatches1++;\n                }\n\n                if (\n                    keccak256(\n                        bytes(certificates[index].recipientHealth.HLADR1)\n                    ) == keccak256(bytes(certificates[i].donorHealth.HLADR1))\n                ) {\n                    HLAmatches1++;\n                }\n\n                if (\n                    keccak256(\n                        bytes(certificates[index].recipientHealth.HLADR2)\n                    ) == keccak256(bytes(certificates[i].donorHealth.HLADR2))\n                ) {\n                    HLAmatches1++;\n                }\n\n                if (\n                    keccak256(\n                        bytes(certificates[index].recipientHealth.HLADQ1)\n                    ) == keccak256(bytes(certificates[i].donorHealth.HLADQ1))\n                ) {\n                    HLAmatches1++;\n                }\n\n                if (\n                    keccak256(\n                        bytes(certificates[index].recipientHealth.HLADQ2)\n                    ) == keccak256(bytes(certificates[i].donorHealth.HLADQ2))\n                ) {\n                    HLAmatches1++;\n                }\n\n                if (\n                    certificates[index].recipientHealth.PRA -\n                        certificates[i].donorHealth.PRA <\n                    20\n                ) {\n                    PRAmatch1 = true;\n                }\n\n                if (\n                    HLAmatches1 > 4 && ageMatch1 && bloodTypeMatch1 && PRAmatch1\n                ) {\n                    recipientMatch = true;\n                }\n\n                // Check certificate donor\n\n                if (\n                    certificates[index].donorHealth.age -\n                        certificates[i].recipientHealth.age <\n                    20\n                ) {\n                    ageMatch2 = true;\n                }\n\n                if (\n                    keccak256(\n                        bytes(certificates[index].donorHealth.bloodType)\n                    ) ==\n                    keccak256(bytes(certificates[i].recipientHealth.bloodType))\n                ) {\n                    bloodTypeMatch2 = true;\n                }\n\n                if (\n                    keccak256(bytes(certificates[index].donorHealth.HLAA1)) ==\n                    keccak256(bytes(certificates[i].recipientHealth.HLAA1))\n                ) {\n                    HLAmatches2++;\n                }\n\n                if (\n                    keccak256(bytes(certificates[index].donorHealth.HLAA2)) ==\n                    keccak256(bytes(certificates[i].recipientHealth.HLAA2))\n                ) {\n                    HLAmatches2++;\n                }\n\n                if (\n                    keccak256(bytes(certificates[index].donorHealth.HLAB1)) ==\n                    keccak256(bytes(certificates[i].recipientHealth.HLAB1))\n                ) {\n                    HLAmatches2++;\n                }\n\n                if (\n                    keccak256(bytes(certificates[index].donorHealth.HLAB2)) ==\n                    keccak256(bytes(certificates[i].recipientHealth.HLAB2))\n                ) {\n                    HLAmatches2++;\n                }\n\n                if (\n                    keccak256(bytes(certificates[index].donorHealth.HLADR1)) ==\n                    keccak256(bytes(certificates[i].recipientHealth.HLADR1))\n                ) {\n                    HLAmatches2++;\n                }\n\n                if (\n                    keccak256(bytes(certificates[index].donorHealth.HLADR2)) ==\n                    keccak256(bytes(certificates[i].recipientHealth.HLADR2))\n                ) {\n                    HLAmatches2++;\n                }\n\n                if (\n                    keccak256(bytes(certificates[index].donorHealth.HLADQ1)) ==\n                    keccak256(bytes(certificates[i].recipientHealth.HLADQ1))\n                ) {\n                    HLAmatches2++;\n                }\n\n                if (\n                    keccak256(bytes(certificates[index].donorHealth.HLADQ2)) ==\n                    keccak256(bytes(certificates[i].recipientHealth.HLADQ2))\n                ) {\n                    HLAmatches2++;\n                }\n\n                if (\n                    certificates[index].donorHealth.PRA -\n                        certificates[i].recipientHealth.PRA <\n                    20\n                ) {\n                    PRAmatch2 = true;\n                }\n\n                if (\n                    HLAmatches1 > 4 && ageMatch1 && bloodTypeMatch1 && PRAmatch1\n                ) {\n                    recipientMatch = true;\n                }\n\n                if (\n                    HLAmatches2 > 4 && ageMatch2 && bloodTypeMatch2 && PRAmatch2\n                ) {\n                    donorMatch = true;\n                }\n\n                if (recipientMatch && donorMatch) {\n                    return (\n                        string(\n                            abi.encodePacked(\n                                certificates[i].donorID,\n                                certificates[i].recipientID\n                            )\n                        )\n                    );\n                }\n            }\n        }\n    }\n}\n",
  "sourcePath": "/Users/anirudhv/Desktop/kidney-connect/contracts/CertificateLedger.sol",
  "compiler": {
    "name": "solc",
    "version": "0.5.16+commit.9c3226ce.Emscripten.clang"
  },
  "schemaVersion": "3.3.4",
  "updatedAt": "2021-04-17T17:27:46.150Z",
  "networkType": "ethereum",
  "devdoc": {
    "methods": {}
  },
  "userdoc": {
    "methods": {}
  }
}