{
  "contractName": "CertificateLedger",
  "abi": [
    {
      "inputs": [],
      "payable": false,
      "stateMutability": "nonpayable",
      "type": "constructor"
    },
    {
      "constant": true,
      "inputs": [
        {
          "internalType": "uint256",
          "name": "",
          "type": "uint256"
        }
      ],
      "name": "certificates",
      "outputs": [
        {
          "internalType": "string",
          "name": "recipientID",
          "type": "string"
        },
        {
          "internalType": "address",
          "name": "signature",
          "type": "address"
        },
        {
          "components": [
            {
              "internalType": "uint256",
              "name": "age",
              "type": "uint256"
            }
          ],
          "internalType": "struct CertificateLedger.Health",
          "name": "recipientHealth",
          "type": "tuple"
        }
      ],
      "payable": false,
      "stateMutability": "view",
      "type": "function"
    },
    {
      "constant": true,
      "inputs": [
        {
          "internalType": "uint256",
          "name": "id",
          "type": "uint256"
        }
      ],
      "name": "getAddress",
      "outputs": [
        {
          "internalType": "uint256",
          "name": "",
          "type": "uint256"
        }
      ],
      "payable": false,
      "stateMutability": "view",
      "type": "function"
    },
    {
      "constant": true,
      "inputs": [
        {
          "internalType": "uint256",
          "name": "id",
          "type": "uint256"
        }
      ],
      "name": "getRecipientHealth",
      "outputs": [
        {
          "internalType": "uint256",
          "name": "",
          "type": "uint256"
        }
      ],
      "payable": false,
      "stateMutability": "view",
      "type": "function"
    },
    {
      "constant": false,
      "inputs": [
        {
          "internalType": "address",
          "name": "_signature",
          "type": "address"
        },
        {
          "internalType": "string",
          "name": "_recipientID",
          "type": "string"
        },
        {
          "components": [
            {
              "internalType": "uint256",
              "name": "age",
              "type": "uint256"
            }
          ],
          "internalType": "struct CertificateLedger.Health",
          "name": "_recipientHealth",
          "type": "tuple"
        }
      ],
      "name": "createCert",
      "outputs": [],
      "payable": false,
      "stateMutability": "nonpayable",
      "type": "function"
    }
  ],
  "bytecode": "0x60806040526000805534801561001457600080fd5b506105aa806100246000396000f3fe608060405234801561001057600080fd5b506004361061004c5760003560e01c8063663b3e2214610051578063691e4a6d1461007c578063a03e4a4214610091578063b93f9b0a146100b1575b600080fd5b61006461005f3660046103d0565b6100c4565b6040516100739392919061045d565b60405180910390f35b61008f61008a36600461036b565b610185565b005b6100a461009f3660046103d0565b610212565b604051610073919061048a565b6100a46100bf3660046103d0565b610227565b60016020818152600092835260409283902080548451600294821615610100026000190190911693909304601f81018390048302840183019094528383529283918301828280156101565780601f1061012b57610100808354040283529160200191610156565b820191906000526020600020905b81548152906001019060200180831161013957829003601f168201915b5050505060018301546040805160208101909152600290940154845291926001600160a01b0390921691905083565b604080516060810182528381526001600160a01b038516602080830191909152818301849052600080548152600182529290922081518051929391926101ce928492019061022d565b506020820151600182810180546001600160a01b0319166001600160a01b039093169290921790915560409092015151600290910155600080549091019055505050565b60009081526001602052604090206002015490565b50600a90565b828054600181600116156101000203166002900490600052602060002090601f016020900481019282601f1061026e57805160ff191683800117855561029b565b8280016001018555821561029b579182015b8281111561029b578251825591602001919060010190610280565b506102a79291506102ab565b5090565b6102c591905b808211156102a757600081556001016102b1565b90565b80356102d381610547565b92915050565b600082601f8301126102ea57600080fd5b81356102fd6102f8826104bf565b610498565b9150808252602083016020830185838301111561031957600080fd5b610324838284610505565b50505092915050565b60006020828403121561033f57600080fd5b6103496020610498565b905060006103578484610360565b82525092915050565b80356102d38161055e565b60008060006060848603121561038057600080fd5b600061038c86866102c8565b935050602084013567ffffffffffffffff8111156103a957600080fd5b6103b5868287016102d9565b92505060406103c68682870161032d565b9150509250925092565b6000602082840312156103e257600080fd5b60006103ee8484610360565b949350505050565b6103ff816104f4565b82525050565b6000610410826104e7565b61041a81856104eb565b935061042a818560208601610511565b6104338161053d565b9093019392505050565b8051602083019061044e8482610454565b50505050565b6103ff816102c5565b6060808252810161046e8186610405565b905061047d60208301856103f6565b6103ee604083018461043d565b602081016102d38284610454565b60405181810167ffffffffffffffff811182821017156104b757600080fd5b604052919050565b600067ffffffffffffffff8211156104d657600080fd5b506020601f91909101601f19160190565b5190565b90815260200190565b60006001600160a01b0382166102d3565b82818337506000910152565b60005b8381101561052c578181015183820152602001610514565b8381111561044e5750506000910152565b601f01601f191690565b610550816104f4565b811461055b57600080fd5b50565b610550816102c556fea365627a7a723158203a10bfb4b22c83bb5a1d3bc23974970b7ec1d32a28b146f491b2d12cfe02d0e36c6578706572696d656e74616cf564736f6c63430005100040",
  "source": "pragma solidity ^0.5.16;\npragma experimental ABIEncoderV2;\n\ncontract CertificateLedger {\n    uint256 certCount = 0;\n    struct Certificate {\n        string recipientID;\n        // uint256 RecipientHealth;\n        // uint256 DonorID;\n        // uint256 DonorHealth;\n        address signature;\n        Health recipientHealth;\n\n        // uint256 Contact;\n        // uint256 TimeStamp;\n        // bool ValidPair;\n    }\n\n    struct Health {\n        uint256 age;\n    }\n\n    mapping(uint256 => Certificate) public certificates;\n\n    constructor() public {}\n\n    function getAddress(uint256 id) public view returns (uint256) {\n        return (10);\n    }\n\n    function getRecipientHealth(uint256 id) public view returns (uint256) {\n        return (certificates[id].recipientHealth.age);\n    }\n\n    function createCert(\n        address _signature,\n        string memory _recipientID,\n        Health memory _recipientHealth\n    ) public {\n        certificates[certCount] = Certificate(\n            _recipientID,\n            _signature,\n            _recipientHealth\n        );\n        certCount++;\n    }\n\n    // mapping(uint256 => Certificate) public certificates;\n\n    // // event certificateCreated(Certificate);\n    // event matchFound(string certificateID);\n\n    // function createCertificate(string memory _content) public {\n    //     CertificateLedger cert = Certificate(_content);\n    //     // emit certificateCreated(certificates[certCount]);\n    //     certCount++;\n    // }\n\n    // function findMatch(address addr) external returns (uint256) {\n    //     // for (uint256 j = 0; j < certCount; j++) {\n    //     // }\n    //     // emit matchFound(_certificateID);\n    //     // uint256[] x = [1, 2, 3];\n    //     return (10);\n    // }\n}\n\n// contract CertificateLedgerWrapper {\n//     uint256 certificates = 10;\n// }\n",
  "sourcePath": "/Users/anirudhv/Desktop/kidney-connect/contracts/CertificateLedger.sol",
  "compiler": {
    "name": "solc",
    "version": "0.5.16+commit.9c3226ce.Emscripten.clang"
  },
  "schemaVersion": "3.3.4",
  "updatedAt": "2021-04-17T04:03:48.491Z",
  "networkType": "ethereum",
  "devdoc": {
    "methods": {}
  },
  "userdoc": {
    "methods": {}
  }
}