{
  "contractName": "CertificateLedger",
  "abi": [
    {
      "anonymous": false,
      "inputs": [
        {
          "indexed": false,
          "internalType": "string",
          "name": "certificateID",
          "type": "string"
        }
      ],
      "name": "matchFound",
      "type": "event"
    },
    {
      "constant": true,
      "inputs": [
        {
          "internalType": "uint256",
          "name": "",
          "type": "uint256"
        }
      ],
      "name": "certificates",
      "outputs": [
        {
          "internalType": "string",
          "name": "CertificateID",
          "type": "string"
        }
      ],
      "payable": false,
      "stateMutability": "view",
      "type": "function"
    },
    {
      "constant": false,
      "inputs": [
        {
          "internalType": "string",
          "name": "_content",
          "type": "string"
        }
      ],
      "name": "createCertificate",
      "outputs": [],
      "payable": false,
      "stateMutability": "nonpayable",
      "type": "function"
    },
    {
      "constant": true,
      "inputs": [
        {
          "internalType": "string",
          "name": "_certificateID",
          "type": "string"
        }
      ],
      "name": "findMatch",
      "outputs": [
        {
          "internalType": "uint256",
          "name": "",
          "type": "uint256"
        }
      ],
      "payable": false,
      "stateMutability": "view",
      "type": "function"
    }
  ],
  "bytecode": "0x60806040526000805534801561001457600080fd5b506103ea806100246000396000f3fe608060405234801561001057600080fd5b50600436106100415760003560e01c8063663b3e221461004657806374444882146100d857806376ce18ac14610180575b600080fd5b6100636004803603602081101561005c57600080fd5b5035610238565b6040805160208082528351818301528351919283929083019185019080838360005b8381101561009d578181015183820152602001610085565b50505050905090810190601f1680156100ca5780820380516001836020036101000a031916815260200191505b509250505060405180910390f35b61017e600480360360208110156100ee57600080fd5b81019060208101813564010000000081111561010957600080fd5b82018360208201111561011b57600080fd5b8035906020019184600183028401116401000000008311171561013d57600080fd5b91908080601f0160208091040260200160405190810160405280939291908181526020018383808284376000920191909152509295506102d4945050505050565b005b6102266004803603602081101561019657600080fd5b8101906020810181356401000000008111156101b157600080fd5b8201836020820111156101c357600080fd5b803590602001918460018302840111640100000000831117156101e557600080fd5b91908080601f016020809104026020016040519081016040528093929190818152602001838380828437600092019190915250929550610314945050505050565b60408051918252519081900360200190f35b60016020818152600092835260409283902080548451600294821615610100026000190190911693909304601f81018390048302840183019094528383529283918301828280156102ca5780601f1061029f576101008083540402835291602001916102ca565b820191906000526020600020905b8154815290600101906020018083116102ad57829003601f168201915b5050505050905081565b604080516020808201835283825260008054815260018252929092208151805192939192610305928492019061031a565b50506000805460010190555050565b50600a90565b828054600181600116156101000203166002900490600052602060002090601f016020900481019282601f1061035b57805160ff1916838001178555610388565b82800160010185558215610388579182015b8281111561038857825182559160200191906001019061036d565b50610394929150610398565b5090565b6103b291905b80821115610394576000815560010161039e565b9056fea265627a7a723158208ef53ef23b24bf71754193b2f1aeb5111544cb6642bb45957522804bfc8d164f64736f6c63430005100032",
  "source": "pragma solidity ^0.5.16;\n\ncontract CertificateLedger {\n    uint256 certCount = 0;\n    struct Certificate {\n        string CertificateID;\n        // uint256 RecipientID;\n        // uint256 RecipientHealth;\n        // uint256 DonorID;\n        // uint256 DonorHealth;\n        // address DoctorSig;\n        // uint256 Contact;\n        // uint256 TimeStamp;\n        // bool ValidPair;\n    }\n\n    mapping(uint256 => Certificate) public certificates;\n\n    // event certificateCreated(Certificate);\n    event matchFound(string certificateID);\n\n    function createCertificate(string memory _content) public {\n        certificates[certCount] = Certificate(_content);\n        // emit certificateCreated(certificates[certCount]);\n        certCount++;\n    }\n\n    function findMatch(string memory _certificateID)\n        public\n        view\n        returns (uint256)\n    {\n        // for (uint256 j = 0; j < certCount; j++) {\n        // }\n        // emit matchFound(_certificateID);\n        return (10);\n    }\n}\n",
  "sourcePath": "/Users/anirudhv/Desktop/kidney-connect/contracts/CertificateLedger.sol",
  "compiler": {
    "name": "solc",
    "version": "0.5.16+commit.9c3226ce.Emscripten.clang"
  },
  "schemaVersion": "3.3.4",
  "updatedAt": "2021-04-16T20:52:49.647Z",
  "networkType": "ethereum",
  "devdoc": {
    "methods": {}
  },
  "userdoc": {
    "methods": {}
  }
}